{
  "contractName": "BettingPool",
  "abi": [
    {
      "constant": true,
      "inputs": [],
      "name": "totalBetB",
      "outputs": [
        {
          "name": "",
          "type": "uint256"
        }
      ],
      "payable": false,
      "stateMutability": "view",
      "type": "function"
    },
    {
      "constant": false,
      "inputs": [],
      "name": "renounceOwnership",
      "outputs": [],
      "payable": false,
      "stateMutability": "nonpayable",
      "type": "function"
    },
    {
      "constant": true,
      "inputs": [],
      "name": "owner",
      "outputs": [
        {
          "name": "",
          "type": "address"
        }
      ],
      "payable": false,
      "stateMutability": "view",
      "type": "function"
    },
    {
      "constant": true,
      "inputs": [],
      "name": "teamADidWin",
      "outputs": [
        {
          "name": "",
          "type": "bool"
        }
      ],
      "payable": false,
      "stateMutability": "view",
      "type": "function"
    },
    {
      "constant": true,
      "inputs": [],
      "name": "totalBetA",
      "outputs": [
        {
          "name": "",
          "type": "uint256"
        }
      ],
      "payable": false,
      "stateMutability": "view",
      "type": "function"
    },
    {
      "constant": true,
      "inputs": [],
      "name": "fulfilled",
      "outputs": [
        {
          "name": "",
          "type": "bool"
        }
      ],
      "payable": false,
      "stateMutability": "view",
      "type": "function"
    },
    {
      "constant": false,
      "inputs": [
        {
          "name": "_newOwner",
          "type": "address"
        }
      ],
      "name": "transferOwnership",
      "outputs": [],
      "payable": false,
      "stateMutability": "nonpayable",
      "type": "function"
    },
    {
      "inputs": [
        {
          "name": "_link",
          "type": "address"
        },
        {
          "name": "_oracle",
          "type": "address"
        },
        {
          "name": "_jobId",
          "type": "bytes32"
        },
        {
          "name": "_oraclePaymentAmount",
          "type": "uint256"
        }
      ],
      "payable": false,
      "stateMutability": "nonpayable",
      "type": "constructor"
    },
    {
      "anonymous": false,
      "inputs": [
        {
          "indexed": true,
          "name": "previousOwner",
          "type": "address"
        }
      ],
      "name": "OwnershipRenounced",
      "type": "event"
    },
    {
      "anonymous": false,
      "inputs": [
        {
          "indexed": true,
          "name": "previousOwner",
          "type": "address"
        },
        {
          "indexed": true,
          "name": "newOwner",
          "type": "address"
        }
      ],
      "name": "OwnershipTransferred",
      "type": "event"
    },
    {
      "anonymous": false,
      "inputs": [
        {
          "indexed": true,
          "name": "id",
          "type": "bytes32"
        }
      ],
      "name": "ChainlinkRequested",
      "type": "event"
    },
    {
      "anonymous": false,
      "inputs": [
        {
          "indexed": true,
          "name": "id",
          "type": "bytes32"
        }
      ],
      "name": "ChainlinkFulfilled",
      "type": "event"
    },
    {
      "anonymous": false,
      "inputs": [
        {
          "indexed": true,
          "name": "id",
          "type": "bytes32"
        }
      ],
      "name": "ChainlinkCancelled",
      "type": "event"
    },
    {
      "constant": false,
      "inputs": [
        {
          "name": "isBetA",
          "type": "bool"
        }
      ],
      "name": "bet",
      "outputs": [],
      "payable": true,
      "stateMutability": "payable",
      "type": "function"
    },
    {
      "constant": false,
      "inputs": [],
      "name": "withdraw",
      "outputs": [],
      "payable": false,
      "stateMutability": "nonpayable",
      "type": "function"
    },
    {
      "constant": true,
      "inputs": [
        {
          "name": "isBetA",
          "type": "bool"
        }
      ],
      "name": "getBetAmount",
      "outputs": [
        {
          "name": "betAmount",
          "type": "uint256"
        }
      ],
      "payable": false,
      "stateMutability": "view",
      "type": "function"
    }
  ],
  "bytecode": "0x6080604052600160045534801561001557600080fd5b50604051608080610b828339810180604052810190808051906020019092919080519060200190929190805190602001909291908051906020019092919050505033600660006101000a81548173ffffffffffffffffffffffffffffffffffffffff021916908373ffffffffffffffffffffffffffffffffffffffff1602179055506100af846100e2640100000000026401000000009004565b6100c783610126640100000000026401000000009004565b81600a8160001916905550806009819055505050505061016a565b80600260006101000a81548173ffffffffffffffffffffffffffffffffffffffff021916908373ffffffffffffffffffffffffffffffffffffffff16021790555050565b80600360006101000a81548173ffffffffffffffffffffffffffffffffffffffff021916908373ffffffffffffffffffffffffffffffffffffffff16021790555050565b610a09806101796000396000f3006080604052600436106100a4576000357c0100000000000000000000000000000000000000000000000000000000900463ffffffff168063168f407a146100a95780633ccfd60b146100d4578063523afb0d146100eb578063715018a61461010d5780638da5cb5b1461012457806398ff29c11461017b578063d729a21c146101aa578063daea25f1146101d5578063e2d46f9814610218578063f2fde38b14610247575b600080fd5b3480156100b557600080fd5b506100be61028a565b6040518082815260200191505060405180910390f35b3480156100e057600080fd5b506100e9610290565b005b61010b600480360381019080803515159060200190929190505050610517565b005b34801561011957600080fd5b5061012261068b565b005b34801561013057600080fd5b50610139610790565b604051808273ffffffffffffffffffffffffffffffffffffffff1673ffffffffffffffffffffffffffffffffffffffff16815260200191505060405180910390f35b34801561018757600080fd5b506101906107b6565b604051808215151515815260200191505060405180910390f35b3480156101b657600080fd5b506101bf6107c9565b6040518082815260200191505060405180910390f35b3480156101e157600080fd5b506102026004803603810190808035151590602001909291905050506107cf565b6040518082815260200191505060405180910390f35b34801561022457600080fd5b5061022d610866565b604051808215151515815260200191505060405180910390f35b34801561025357600080fd5b50610288600480360381019080803573ffffffffffffffffffffffffffffffffffffffff169060200190929190505050610879565b005b600c5481565b600d60009054906101000a900460ff16151561033a576040517f08c379a000000000000000000000000000000000000000000000000000000000815260040180806020018281038252603e8152602001807f596f752063616e2774207769746864726177206265666f726520746865206d6181526020017f74636820726573756c7420686173206265656e2064656c6976657265642e000081525060400191505060405180910390fd5b600d60019054906101000a900460ff1615610434573373ffffffffffffffffffffffffffffffffffffffff166108fc600b54600760003373ffffffffffffffffffffffffffffffffffffffff1673ffffffffffffffffffffffffffffffffffffffff16815260200190815260200160002054600c54600b5401028115156103bd57fe5b049081150290604051600060405180830381858888f193505050501580156103e9573d6000803e3d6000fd5b506000600760003373ffffffffffffffffffffffffffffffffffffffff1673ffffffffffffffffffffffffffffffffffffffff16815260200190815260200160002081905550610515565b3373ffffffffffffffffffffffffffffffffffffffff166108fc600c54600860003373ffffffffffffffffffffffffffffffffffffffff1673ffffffffffffffffffffffffffffffffffffffff16815260200190815260200160002054600c54600b5401028115156104a257fe5b049081150290604051600060405180830381858888f193505050501580156104ce573d6000803e3d6000fd5b506000600860003373ffffffffffffffffffffffffffffffffffffffff1673ffffffffffffffffffffffffffffffffffffffff168152602001908152602001600020819055505b565b600d60009054906101000a900460ff161515156105c2576040517f08c379a00000000000000000000000000000000000000000000000000000000081526004018080602001828103825260388152602001807f596f752063616e27742062657420616674657220746865206d6174636820726581526020017f73756c7420686173206265656e2064656c6976657265642e000000000000000081525060400191505060405180910390fd5b801561062a5734600760003373ffffffffffffffffffffffffffffffffffffffff1673ffffffffffffffffffffffffffffffffffffffff1681526020019081526020016000206000828254019250508190555034600b60008282540192505081905550610688565b34600860003373ffffffffffffffffffffffffffffffffffffffff1673ffffffffffffffffffffffffffffffffffffffff1681526020019081526020016000206000828254019250508190555034600c600082825401925050819055505b50565b600660009054906101000a900473ffffffffffffffffffffffffffffffffffffffff1673ffffffffffffffffffffffffffffffffffffffff163373ffffffffffffffffffffffffffffffffffffffff161415156106e757600080fd5b600660009054906101000a900473ffffffffffffffffffffffffffffffffffffffff1673ffffffffffffffffffffffffffffffffffffffff167ff8df31144d9c2f0f6b59d69b8b98abd5459d07f2742c4df920b25aae33c6482060405160405180910390a26000600660006101000a81548173ffffffffffffffffffffffffffffffffffffffff021916908373ffffffffffffffffffffffffffffffffffffffff160217905550565b600660009054906101000a900473ffffffffffffffffffffffffffffffffffffffff1681565b600d60019054906101000a900460ff1681565b600b5481565b6000811561081e57600760003373ffffffffffffffffffffffffffffffffffffffff1673ffffffffffffffffffffffffffffffffffffffff168152602001908152602001600020549050610861565b600860003373ffffffffffffffffffffffffffffffffffffffff1673ffffffffffffffffffffffffffffffffffffffff1681526020019081526020016000205490505b919050565b600d60009054906101000a900460ff1681565b600660009054906101000a900473ffffffffffffffffffffffffffffffffffffffff1673ffffffffffffffffffffffffffffffffffffffff163373ffffffffffffffffffffffffffffffffffffffff161415156108d557600080fd5b6108de816108e1565b50565b600073ffffffffffffffffffffffffffffffffffffffff168173ffffffffffffffffffffffffffffffffffffffff161415151561091d57600080fd5b8073ffffffffffffffffffffffffffffffffffffffff16600660009054906101000a900473ffffffffffffffffffffffffffffffffffffffff1673ffffffffffffffffffffffffffffffffffffffff167f8be0079c531659141344cd1fd0a4f28419497f9722a3daafe3b4186f6b6457e060405160405180910390a380600660006101000a81548173ffffffffffffffffffffffffffffffffffffffff021916908373ffffffffffffffffffffffffffffffffffffffff160217905550505600a165627a7a72305820bee845666b413214bd25a75bee77c71fbd4a6399bd4532c798f6b69d61aa64a50029",
  "source": "pragma solidity 0.4.24;\n\nimport \"../node_modules/chainlink/contracts/ChainlinkClient.sol\";\nimport \"../node_modules/openzeppelin-solidity/contracts/ownership/Ownable.sol\";\n\ncontract BettingPool is ChainlinkClient, Ownable\n{\n    mapping(address => uint256) private betsA;\n    mapping(address => uint256) private betsB;\n\n    uint256 internal oraclePaymentAmount;\n    bytes32 internal jobId;\n\n    uint256 public totalBetA;\n    uint256 public totalBetB;\n\n    bool public fulfilled;\n    bool public teamADidWin;\n\n    constructor(\n        address _link,\n        address _oracle,\n        bytes32 _jobId,\n        uint256 _oraclePaymentAmount\n        )\n    Ownable()\n    public\n    {\n        setChainlinkToken(_link);\n        setChainlinkOracle(_oracle);\n        jobId = _jobId;\n        oraclePaymentAmount = _oraclePaymentAmount;\n    }\n\n    function bet(bool isBetA) external payable\n    {\n        require(!fulfilled, \"You can't bet after the match result has been delivered.\");\n        if (isBetA)\n        {\n            betsA[msg.sender] += msg.value;\n            totalBetA += msg.value;\n        }\n        else\n        {\n            betsB[msg.sender] += msg.value;\n            totalBetB += msg.value;\n        }\n    }\n\n    function withdraw() external\n    {\n        require(fulfilled, \"You can't withdraw before the match result has been delivered.\");\n        if (teamADidWin)\n        {\n            msg.sender.transfer(((totalBetA + totalBetB) * betsA[msg.sender]) / totalBetA);\n            betsA[msg.sender] = 0;\n        }\n        else\n        {\n            msg.sender.transfer(((totalBetA + totalBetB) * betsB[msg.sender]) / totalBetB);\n            betsB[msg.sender] = 0;\n        }\n    }\n\n    function getBetAmount(bool isBetA) external view returns (uint256 betAmount)\n    {\n        if (isBetA)\n        {\n            betAmount = betsA[msg.sender];\n        }\n        else\n        {\n            betAmount = betsB[msg.sender];\n        }\n    }\n}\n",
  "sourcePath": "/home/burak/Desktop/honeycomb-chainlink-workshop/contracts/BettingPool.sol",
  "compiler": {
    "name": "solc",
    "version": "0.4.24+commit.e67f0147.Emscripten.clang"
  },
  "schemaVersion": "3.0.16",
  "updatedAt": "2019-10-29T19:13:14.092Z",
  "devdoc": {
    "methods": {
      "renounceOwnership()": {
        "details": "Allows the current owner to relinquish control of the contract."
      },
      "transferOwnership(address)": {
        "details": "Allows the current owner to transfer control of the contract to a newOwner.",
        "params": {
          "_newOwner": "The address to transfer ownership to."
        }
      }
    }
  },
  "userdoc": {
    "methods": {
      "renounceOwnership()": {
        "notice": "Renouncing to ownership will leave the contract without an owner. It will not be possible to call the functions with the `onlyOwner` modifier anymore."
      }
    }
  }
}