{
  "contractName": "LolBetter",
  "abi": [
    {
      "constant": true,
      "inputs": [],
      "name": "totalBetB",
      "outputs": [
        {
          "name": "",
          "type": "uint256"
        }
      ],
      "payable": false,
      "stateMutability": "view",
      "type": "function"
    },
    {
      "constant": true,
      "inputs": [],
      "name": "result",
      "outputs": [
        {
          "name": "",
          "type": "bool"
        }
      ],
      "payable": false,
      "stateMutability": "view",
      "type": "function"
    },
    {
      "constant": false,
      "inputs": [],
      "name": "renounceOwnership",
      "outputs": [],
      "payable": false,
      "stateMutability": "nonpayable",
      "type": "function"
    },
    {
      "constant": true,
      "inputs": [],
      "name": "teamA",
      "outputs": [
        {
          "name": "",
          "type": "string"
        }
      ],
      "payable": false,
      "stateMutability": "view",
      "type": "function"
    },
    {
      "constant": true,
      "inputs": [],
      "name": "teamB",
      "outputs": [
        {
          "name": "",
          "type": "string"
        }
      ],
      "payable": false,
      "stateMutability": "view",
      "type": "function"
    },
    {
      "constant": true,
      "inputs": [],
      "name": "owner",
      "outputs": [
        {
          "name": "",
          "type": "address"
        }
      ],
      "payable": false,
      "stateMutability": "view",
      "type": "function"
    },
    {
      "constant": true,
      "inputs": [],
      "name": "matchId",
      "outputs": [
        {
          "name": "",
          "type": "string"
        }
      ],
      "payable": false,
      "stateMutability": "view",
      "type": "function"
    },
    {
      "constant": true,
      "inputs": [],
      "name": "totalBetA",
      "outputs": [
        {
          "name": "",
          "type": "uint256"
        }
      ],
      "payable": false,
      "stateMutability": "view",
      "type": "function"
    },
    {
      "constant": true,
      "inputs": [],
      "name": "fulfilled",
      "outputs": [
        {
          "name": "",
          "type": "bool"
        }
      ],
      "payable": false,
      "stateMutability": "view",
      "type": "function"
    },
    {
      "constant": false,
      "inputs": [
        {
          "name": "_newOwner",
          "type": "address"
        }
      ],
      "name": "transferOwnership",
      "outputs": [],
      "payable": false,
      "stateMutability": "nonpayable",
      "type": "function"
    },
    {
      "inputs": [
        {
          "name": "_link",
          "type": "address"
        },
        {
          "name": "_oracle",
          "type": "address"
        },
        {
          "name": "_jobId",
          "type": "bytes32"
        },
        {
          "name": "_oraclePaymentAmount",
          "type": "uint256"
        },
        {
          "name": "_matchId",
          "type": "string"
        },
        {
          "name": "_teamA",
          "type": "string"
        },
        {
          "name": "_teamB",
          "type": "string"
        }
      ],
      "payable": false,
      "stateMutability": "nonpayable",
      "type": "constructor"
    },
    {
      "anonymous": false,
      "inputs": [
        {
          "indexed": true,
          "name": "previousOwner",
          "type": "address"
        }
      ],
      "name": "OwnershipRenounced",
      "type": "event"
    },
    {
      "anonymous": false,
      "inputs": [
        {
          "indexed": true,
          "name": "previousOwner",
          "type": "address"
        },
        {
          "indexed": true,
          "name": "newOwner",
          "type": "address"
        }
      ],
      "name": "OwnershipTransferred",
      "type": "event"
    },
    {
      "anonymous": false,
      "inputs": [
        {
          "indexed": true,
          "name": "id",
          "type": "bytes32"
        }
      ],
      "name": "ChainlinkRequested",
      "type": "event"
    },
    {
      "anonymous": false,
      "inputs": [
        {
          "indexed": true,
          "name": "id",
          "type": "bytes32"
        }
      ],
      "name": "ChainlinkFulfilled",
      "type": "event"
    },
    {
      "anonymous": false,
      "inputs": [
        {
          "indexed": true,
          "name": "id",
          "type": "bytes32"
        }
      ],
      "name": "ChainlinkCancelled",
      "type": "event"
    },
    {
      "constant": false,
      "inputs": [
        {
          "name": "betResult",
          "type": "bool"
        }
      ],
      "name": "bet",
      "outputs": [],
      "payable": true,
      "stateMutability": "payable",
      "type": "function"
    },
    {
      "constant": false,
      "inputs": [],
      "name": "withdraw",
      "outputs": [],
      "payable": false,
      "stateMutability": "nonpayable",
      "type": "function"
    },
    {
      "constant": false,
      "inputs": [],
      "name": "checkResult",
      "outputs": [
        {
          "name": "requestId",
          "type": "bytes32"
        }
      ],
      "payable": false,
      "stateMutability": "nonpayable",
      "type": "function"
    },
    {
      "constant": true,
      "inputs": [
        {
          "name": "outcome",
          "type": "bool"
        }
      ],
      "name": "getBetAmount",
      "outputs": [
        {
          "name": "betAmount",
          "type": "uint256"
        }
      ],
      "payable": false,
      "stateMutability": "view",
      "type": "function"
    },
    {
      "constant": false,
      "inputs": [
        {
          "name": "_requestId",
          "type": "bytes32"
        },
        {
          "name": "_data",
          "type": "bytes32"
        }
      ],
      "name": "fulfill",
      "outputs": [],
      "payable": false,
      "stateMutability": "nonpayable",
      "type": "function"
    }
  ],
  "bytecode": "0x608060405260016004553480156200001657600080fd5b506040516200218c3803806200218c8339810180604052810190808051906020019092919080519060200190929190805190602001909291908051906020019092919080518201929190602001805182019291906020018051820192919050505033600660006101000a81548173ffffffffffffffffffffffffffffffffffffffff021916908373ffffffffffffffffffffffffffffffffffffffff160217905550620000d28762000156640100000000026401000000009004565b620000ec866200019a640100000000026401000000009004565b84600a81600019169055508360098190555082600b908051906020019062000116929190620001de565b5081600c90805190602001906200012f929190620001de565b5080600d908051906020019062000148929190620001de565b50505050505050506200028d565b80600260006101000a81548173ffffffffffffffffffffffffffffffffffffffff021916908373ffffffffffffffffffffffffffffffffffffffff16021790555050565b80600360006101000a81548173ffffffffffffffffffffffffffffffffffffffff021916908373ffffffffffffffffffffffffffffffffffffffff16021790555050565b828054600181600116156101000203166002900490600052602060002090601f016020900481019282601f106200022157805160ff191683800117855562000252565b8280016001018555821562000252579182015b828111156200025157825182559160200191906001019062000234565b5b50905062000261919062000265565b5090565b6200028a91905b80821115620002865760008160009055506001016200026c565b5090565b90565b611eef806200029d6000396000f3006080604052600436106100db576000357c0100000000000000000000000000000000000000000000000000000000900463ffffffff168063042f2b65146100e0578063168f407a1461011f5780633ccfd60b1461014a578063523afb0d146101615780636537214714610183578063715018a6146101b2578063826df9aa146101c95780638aa7c3e8146102595780638da5cb5b146102e957806399892e4714610340578063a21d942f146103d0578063d729a21c14610403578063daea25f11461042e578063e2d46f9814610471578063f2fde38b146104a0575b600080fd5b3480156100ec57600080fd5b5061011d600480360381019080803560001916906020019092919080356000191690602001909291905050506104e3565b005b34801561012b57600080fd5b50610134610727565b6040518082815260200191505060405180910390f35b34801561015657600080fd5b5061015f61072d565b005b61018160048036038101908080351515906020019092919050505061092b565b005b34801561018f57600080fd5b50610198610aa0565b604051808215151515815260200191505060405180910390f35b3480156101be57600080fd5b506101c7610ab3565b005b3480156101d557600080fd5b506101de610bb8565b6040518080602001828103825283818151815260200191508051906020019080838360005b8381101561021e578082015181840152602081019050610203565b50505050905090810190601f16801561024b5780820380516001836020036101000a031916815260200191505b509250505060405180910390f35b34801561026557600080fd5b5061026e610c56565b6040518080602001828103825283818151815260200191508051906020019080838360005b838110156102ae578082015181840152602081019050610293565b50505050905090810190601f1680156102db5780820380516001836020036101000a031916815260200191505b509250505060405180910390f35b3480156102f557600080fd5b506102fe610cf4565b604051808273ffffffffffffffffffffffffffffffffffffffff1673ffffffffffffffffffffffffffffffffffffffff16815260200191505060405180910390f35b34801561034c57600080fd5b50610355610d1a565b6040518080602001828103825283818151815260200191508051906020019080838360005b8381101561039557808201518184015260208101905061037a565b50505050905090810190601f1680156103c25780820380516001836020036101000a031916815260200191505b509250505060405180910390f35b3480156103dc57600080fd5b506103e5610db8565b60405180826000191660001916815260200191505060405180910390f35b34801561040f57600080fd5b5061041861111e565b6040518082815260200191505060405180910390f35b34801561043a57600080fd5b5061045b600480360381019080803515159060200190929190505050611124565b6040518082815260200191505060405180910390f35b34801561047d57600080fd5b506104866111bc565b604051808215151515815260200191505060405180910390f35b3480156104ac57600080fd5b506104e1600480360381019080803573ffffffffffffffffffffffffffffffffffffffff1690602001909291905050506111cf565b005b8160056000826000191660001916815260200190815260200160002060009054906101000a900473ffffffffffffffffffffffffffffffffffffffff1673ffffffffffffffffffffffffffffffffffffffff163373ffffffffffffffffffffffffffffffffffffffff161415156105e8576040517f08c379a00000000000000000000000000000000000000000000000000000000081526004018080602001828103825260288152602001807f536f75726365206d75737420626520746865206f7261636c65206f662074686581526020017f207265717565737400000000000000000000000000000000000000000000000081525060400191505060405180910390fd5b60056000826000191660001916815260200190815260200160002060006101000a81549073ffffffffffffffffffffffffffffffffffffffff021916905580600019167f7cc135e0cebb02c3480ae5d74d377283180a2601f8f644edf7987b009316c63a60405160405180910390a27f7465616d5f410000000000000000000000000000000000000000000000000000826000191614156106be576001601060006101000a81548160ff0219169083151502179055506000601060016101000a81548160ff021916908315150217905550610722565b7f7465616d5f42000000000000000000000000000000000000000000000000000082600019161415610721576001601060006101000a81548160ff0219169083151502179055506001601060016101000a81548160ff0219169083151502179055505b5b505050565b600f5481565b601060009054906101000a900460ff1615156107d7576040517f08c379a000000000000000000000000000000000000000000000000000000000815260040180806020018281038252603e8152602001807f596f752063616e2774207769746864726177206265666f726520746865206d6181526020017f74636820726573756c7420686173206265656e2064656c6976657265642e000081525060400191505060405180910390fd5b601060019054906101000a900460ff16151561088d573373ffffffffffffffffffffffffffffffffffffffff166108fc600e54600760003373ffffffffffffffffffffffffffffffffffffffff1673ffffffffffffffffffffffffffffffffffffffff16815260200190815260200160002054600f54600e54010281151561085b57fe5b049081150290604051600060405180830381858888f19350505050158015610887573d6000803e3d6000fd5b50610929565b3373ffffffffffffffffffffffffffffffffffffffff166108fc600f54600860003373ffffffffffffffffffffffffffffffffffffffff1673ffffffffffffffffffffffffffffffffffffffff16815260200190815260200160002054600f54600e5401028115156108fb57fe5b049081150290604051600060405180830381858888f19350505050158015610927573d6000803e3d6000fd5b505b565b601060009054906101000a900460ff161515156109d6576040517f08c379a00000000000000000000000000000000000000000000000000000000081526004018080602001828103825260388152602001807f596f752063616e27742062657420616674657220746865206d6174636820726581526020017f73756c7420686173206265656e2064656c6976657265642e000000000000000081525060400191505060405180910390fd5b801515610a3f5734600760003373ffffffffffffffffffffffffffffffffffffffff1673ffffffffffffffffffffffffffffffffffffffff1681526020019081526020016000206000828254019250508190555034600e60008282540192505081905550610a9d565b34600860003373ffffffffffffffffffffffffffffffffffffffff1673ffffffffffffffffffffffffffffffffffffffff1681526020019081526020016000206000828254019250508190555034600f600082825401925050819055505b50565b601060019054906101000a900460ff1681565b600660009054906101000a900473ffffffffffffffffffffffffffffffffffffffff1673ffffffffffffffffffffffffffffffffffffffff163373ffffffffffffffffffffffffffffffffffffffff16141515610b0f57600080fd5b600660009054906101000a900473ffffffffffffffffffffffffffffffffffffffff1673ffffffffffffffffffffffffffffffffffffffff167ff8df31144d9c2f0f6b59d69b8b98abd5459d07f2742c4df920b25aae33c6482060405160405180910390a26000600660006101000a81548173ffffffffffffffffffffffffffffffffffffffff021916908373ffffffffffffffffffffffffffffffffffffffff160217905550565b600c8054600181600116156101000203166002900480601f016020809104026020016040519081016040528092919081815260200182805460018160011615610100020316600290048015610c4e5780601f10610c2357610100808354040283529160200191610c4e565b820191906000526020600020905b815481529060010190602001808311610c3157829003601f168201915b505050505081565b600d8054600181600116156101000203166002900480601f016020809104026020016040519081016040528092919081815260200182805460018160011615610100020316600290048015610cec5780601f10610cc157610100808354040283529160200191610cec565b820191906000526020600020905b815481529060010190602001808311610ccf57829003601f168201915b505050505081565b600660009054906101000a900473ffffffffffffffffffffffffffffffffffffffff1681565b600b8054600181600116156101000203166002900480601f016020809104026020016040519081016040528092919081815260200182805460018160011615610100020316600290048015610db05780601f10610d8557610100808354040283529160200191610db0565b820191906000526020600020905b815481529060010190602001808311610d9357829003601f168201915b505050505081565b6000610dc2611e21565b600660009054906101000a900473ffffffffffffffffffffffffffffffffffffffff1673ffffffffffffffffffffffffffffffffffffffff163373ffffffffffffffffffffffffffffffffffffffff16141515610e1e57600080fd5b601060009054906101000a900460ff16151515610ec9576040517f08c379a000000000000000000000000000000000000000000000000000000000815260040180806020018281038252602c8152602001807f546865206d6174636820726573756c742068617320616c72656164792062656581526020017f6e2064656c6976657265642e000000000000000000000000000000000000000081525060400191505060405180910390fd5b610ef9600a543063042f2b657c010000000000000000000000000000000000000000000000000000000002611237565b9050610fdf6040805190810160405280600281526020017f6964000000000000000000000000000000000000000000000000000000000000815250600b8054600181600116156101000203166002900480601f016020809104026020016040519081016040528092919081815260200182805460018160011615610100020316600290048015610fca5780601f10610f9f57610100808354040283529160200191610fca565b820191906000526020600020905b815481529060010190602001808311610fad57829003601f168201915b5050505050836112689092919063ffffffff16565b61105e6040805190810160405280600481526020017f74797065000000000000000000000000000000000000000000000000000000008152506040805190810160405280600581526020017f6d61746368000000000000000000000000000000000000000000000000000000815250836112689092919063ffffffff16565b6111046040805190810160405280600881526020017f636f707950617468000000000000000000000000000000000000000000000000815250606060405190810160405280603c81526020017f6461746173706f72747367726f75702e636f6d7065746974696f6e2e7365617381526020017f6f6e2e726f756e64732e67726f75702e6d617463682e77696e6e657200000000815250836112689092919063ffffffff16565b61111861110f61129b565b826009546112c5565b91505090565b600e5481565b600081151561117457600760003373ffffffffffffffffffffffffffffffffffffffff1673ffffffffffffffffffffffffffffffffffffffff1681526020019081526020016000205490506111b7565b600860003373ffffffffffffffffffffffffffffffffffffffff1673ffffffffffffffffffffffffffffffffffffffff1681526020019081526020016000205490505b919050565b601060009054906101000a900460ff1681565b600660009054906101000a900473ffffffffffffffffffffffffffffffffffffffff1673ffffffffffffffffffffffffffffffffffffffff163373ffffffffffffffffffffffffffffffffffffffff1614151561122b57600080fd5b61123481611651565b50565b61123f611e21565b611247611e21565b61125e8585858461174d909392919063ffffffff16565b9150509392505050565b61127f82846080015161180790919063ffffffff16565b61129681846080015161180790919063ffffffff16565b505050565b6000600360009054906101000a900473ffffffffffffffffffffffffffffffffffffffff16905090565b600030600454604051602001808373ffffffffffffffffffffffffffffffffffffffff1673ffffffffffffffffffffffffffffffffffffffff166c01000000000000000000000000028152601401828152602001925050506040516020818303038152906040526040518082805190602001908083835b602083101515611361578051825260208201915060208101905060208303925061133c565b6001836020036101000a038019825116818451168082178552505050505050905001915050604051809103902090506004548360600181815250508360056000836000191660001916815260200190815260200160002060006101000a81548173ffffffffffffffffffffffffffffffffffffffff021916908373ffffffffffffffffffffffffffffffffffffffff16021790555080600019167fb5e6e01e79f91267dc17b4e6314d5d4d03593d2ceee0fbb452b750bd70ea5af960405160405180910390a2600260009054906101000a900473ffffffffffffffffffffffffffffffffffffffff1673ffffffffffffffffffffffffffffffffffffffff16634000aea085846114708761182c565b6040518463ffffffff167c0100000000000000000000000000000000000000000000000000000000028152600401808473ffffffffffffffffffffffffffffffffffffffff1673ffffffffffffffffffffffffffffffffffffffff16815260200183815260200180602001828103825283818151815260200191508051906020019080838360005b838110156115135780820151818401526020810190506114f8565b50505050905090810190601f1680156115405780820380516001836020036101000a031916815260200191505b50945050505050602060405180830381600087803b15801561156157600080fd5b505af1158015611575573d6000803e3d6000fd5b505050506040513d602081101561158b57600080fd5b81019080805190602001909291905050501515611636576040517f08c379a00000000000000000000000000000000000000000000000000000000081526004018080602001828103825260238152602001807f756e61626c6520746f207472616e73666572416e6443616c6c20746f206f726181526020017f636c65000000000000000000000000000000000000000000000000000000000081525060400191505060405180910390fd5b60016004600082825401925050819055508090509392505050565b600073ffffffffffffffffffffffffffffffffffffffff168173ffffffffffffffffffffffffffffffffffffffff161415151561168d57600080fd5b8073ffffffffffffffffffffffffffffffffffffffff16600660009054906101000a900473ffffffffffffffffffffffffffffffffffffffff1673ffffffffffffffffffffffffffffffffffffffff167f8be0079c531659141344cd1fd0a4f28419497f9722a3daafe3b4186f6b6457e060405160405180910390a380600660006101000a81548173ffffffffffffffffffffffffffffffffffffffff021916908373ffffffffffffffffffffffffffffffffffffffff16021790555050565b611755611e21565b6117658560800151610100611a57565b50838560000190600019169081600019168152505082856020019073ffffffffffffffffffffffffffffffffffffffff16908173ffffffffffffffffffffffffffffffffffffffff16815250508185604001907bffffffffffffffffffffffffffffffffffffffffffffffffffffffff191690817bffffffffffffffffffffffffffffffffffffffffffffffffffffffff191681525050849050949350505050565b6118148260038351611ab1565b6118278183611c0f90919063ffffffff16565b505050565b6060600360009054906101000a900473ffffffffffffffffffffffffffffffffffffffff1673ffffffffffffffffffffffffffffffffffffffff16634042994690507c01000000000000000000000000000000000000000000000000000000000260008084600001518560200151866040015187606001516001896080015160000151604051602401808973ffffffffffffffffffffffffffffffffffffffff1673ffffffffffffffffffffffffffffffffffffffff16815260200188815260200187600019166000191681526020018673ffffffffffffffffffffffffffffffffffffffff1673ffffffffffffffffffffffffffffffffffffffff168152602001857bffffffffffffffffffffffffffffffffffffffffffffffffffffffff19167bffffffffffffffffffffffffffffffffffffffffffffffffffffffff1916815260200184815260200183815260200180602001828103825283818151815260200191508051906020019080838360005b838110156119ba57808201518184015260208101905061199f565b50505050905090810190601f1680156119e75780820380516001836020036101000a031916815260200191505b509950505050505050505050604051602081830303815290604052907bffffffffffffffffffffffffffffffffffffffffffffffffffffffff19166020820180517bffffffffffffffffffffffffffffffffffffffffffffffffffffffff83818316178352505050509050919050565b611a5f611e8f565b6000602083811515611a6d57fe5b06141515611a8a57602082811515611a8157fe5b06602003820191505b81836020018181525050604051808452600081528281016020016040525082905092915050565b601781111515611ae357611add8160058460ff169060020a0260ff161784611c3190919063ffffffff16565b50611c0a565b60ff81111515611b2a57611b0d601860058460ff169060020a021784611c3190919063ffffffff16565b50611b2481600185611c519092919063ffffffff16565b50611c09565b61ffff81111515611b7257611b55601960058460ff169060020a021784611c3190919063ffffffff16565b50611b6c81600285611c519092919063ffffffff16565b50611c08565b63ffffffff81111515611bbc57611b9f601a60058460ff169060020a021784611c3190919063ffffffff16565b50611bb681600485611c519092919063ffffffff16565b50611c07565b67ffffffffffffffff81111515611c0657611bed601b60058460ff169060020a021784611c3190919063ffffffff16565b50611c0481600885611c519092919063ffffffff16565b505b5b5b5b5b505050565b611c17611e8f565b611c2983846000015151848551611c73565b905092915050565b611c39611e8f565b611c498384600001515184611d30565b905092915050565b611c59611e8f565b611c6a848560000151518585611d80565b90509392505050565b611c7b611e8f565b600080600085518511151515611c9057600080fd5b87602001518588011115611cbb57611cba886002611cb48b602001518b8a01611de1565b02611dfd565b5b875180518860208301019450808988011115611cd75788870182525b60208801935050505b602085101515611d055781518352602083019250602082019150602085039450611ce0565b6001856020036101000a03905080198251168184511681811785525050879350505050949350505050565b611d38611e8f565b836020015183101515611d5757611d56846002866020015102611dfd565b5b8351805160208583010184815381861415611d73576001820183525b5050508390509392505050565b611d88611e8f565b600085602001518584011115611da857611da786600287860102611dfd565b5b6001836101000a0390508551838682010185831982511617815281518588011115611dd35784870182525b505085915050949350505050565b600081831115611df357829050611df7565b8190505b92915050565b606082600001519050611e108383611a57565b50611e1b8382611c0f565b50505050565b60c06040519081016040528060008019168152602001600073ffffffffffffffffffffffffffffffffffffffff16815260200160007bffffffffffffffffffffffffffffffffffffffffffffffffffffffff1916815260200160008152602001611e89611ea9565b81525090565b604080519081016040528060608152602001600081525090565b6040805190810160405280606081526020016000815250905600a165627a7a72305820b0325ab988a28c2fe86fff577d0a8aed24f0f477910dc265d4557aa106aa07430029",
  "source": "pragma solidity 0.4.24;\n\nimport \"../node_modules/chainlink/contracts/ChainlinkClient.sol\";\nimport \"../node_modules/openzeppelin-solidity/contracts/ownership/Ownable.sol\";\n\ncontract LolBetter is ChainlinkClient, Ownable{\n    mapping(address => uint256) private betsA;\n    mapping(address => uint256) private betsB;\n\n    uint256 private oraclePaymentAmount;\n    bytes32 private jobId;\n\n    string public matchId;\n    string public teamA;\n    string public teamB;\n\n    uint256 public totalBetA;\n    uint256 public totalBetB;\n\n    bool public fulfilled;\n    bool public result;\n\n    constructor(\n        address _link,\n        address _oracle,\n        bytes32 _jobId,\n        uint256 _oraclePaymentAmount,\n        string _matchId,\n        string _teamA,\n        string _teamB\n        )\n    Ownable()\n    public\n    {\n        setChainlinkToken(_link);\n        setChainlinkOracle(_oracle);\n        jobId = _jobId;\n        oraclePaymentAmount = _oraclePaymentAmount;\n        matchId = _matchId;\n        teamA = _teamA;\n        teamB = _teamB;\n    }\n\n    function bet(bool betResult) external payable\n    {\n        require(!fulfilled, \"You can't bet after the match result has been delivered.\");\n        if (!betResult)\n        {\n            betsA[msg.sender] += msg.value;\n            totalBetA += msg.value;\n        }\n        else\n        {\n            betsB[msg.sender] += msg.value;\n            totalBetB += msg.value;\n        }\n    }\n\n    function withdraw() external\n    {\n        require(fulfilled, \"You can't withdraw before the match result has been delivered.\");\n        if (!result)\n        {\n            msg.sender.transfer(((totalBetA + totalBetB) * betsA[msg.sender]) / totalBetA);\n        }\n        else\n        {\n            msg.sender.transfer(((totalBetA + totalBetB) * betsB[msg.sender]) / totalBetB);\n        }\n    }\n\n    function checkResult() external onlyOwner returns (bytes32 requestId)\n    {\n        require(!fulfilled, \"The match result has already been delivered.\");\n        Chainlink.Request memory req = buildChainlinkRequest(jobId, this, this.fulfill.selector);\n        req.add(\"id\", matchId);\n        req.add(\"type\", \"match\");\n        req.add(\"copyPath\", \"datasportsgroup.competition.season.rounds.group.match.winner\");\n        requestId = sendChainlinkRequestTo(chainlinkOracleAddress(), req, oraclePaymentAmount);\n    }\n\n    function getBetAmount(bool outcome) external view returns (uint256 betAmount)\n    {\n        if (!outcome)\n        {\n            betAmount = betsA[msg.sender];\n        }\n        else\n        {\n            betAmount = betsB[msg.sender];\n        }\n    }\n\n    function fulfill(bytes32 _requestId, bytes32 _data)\n    public\n    recordChainlinkFulfillment(_requestId)\n    {\n        if (_data == \"team_A\")\n        {\n            fulfilled = true;\n            result = false;\n        }\n        else if (_data == \"team_B\")\n        {\n            fulfilled = true;\n            result = true;\n        }\n    }\n}\n",
  "sourcePath": "/home/burak/Desktop/honeycomb-chainlink-workshop/contracts/LolBetter.sol",
  "compiler": {
    "name": "solc",
    "version": "0.4.24+commit.e67f0147.Emscripten.clang"
  },
  "schemaVersion": "3.0.16",
  "updatedAt": "2019-10-25T21:18:57.873Z",
  "devdoc": {
    "methods": {
      "renounceOwnership()": {
        "details": "Allows the current owner to relinquish control of the contract."
      },
      "transferOwnership(address)": {
        "details": "Allows the current owner to transfer control of the contract to a newOwner.",
        "params": {
          "_newOwner": "The address to transfer ownership to."
        }
      }
    }
  },
  "userdoc": {
    "methods": {
      "renounceOwnership()": {
        "notice": "Renouncing to ownership will leave the contract without an owner. It will not be possible to call the functions with the `onlyOwner` modifier anymore."
      }
    }
  }
}