{
  "contractName": "SoccerBettingPool",
  "abi": [
    {
      "constant": true,
      "inputs": [],
      "name": "totalBetB",
      "outputs": [
        {
          "name": "",
          "type": "uint256"
        }
      ],
      "payable": false,
      "stateMutability": "view",
      "type": "function"
    },
    {
      "constant": false,
      "inputs": [],
      "name": "withdraw",
      "outputs": [],
      "payable": false,
      "stateMutability": "nonpayable",
      "type": "function"
    },
    {
      "constant": false,
      "inputs": [
        {
          "name": "isBetA",
          "type": "bool"
        }
      ],
      "name": "bet",
      "outputs": [],
      "payable": true,
      "stateMutability": "payable",
      "type": "function"
    },
    {
      "constant": false,
      "inputs": [],
      "name": "renounceOwnership",
      "outputs": [],
      "payable": false,
      "stateMutability": "nonpayable",
      "type": "function"
    },
    {
      "constant": true,
      "inputs": [],
      "name": "teamA",
      "outputs": [
        {
          "name": "",
          "type": "string"
        }
      ],
      "payable": false,
      "stateMutability": "view",
      "type": "function"
    },
    {
      "constant": true,
      "inputs": [],
      "name": "teamB",
      "outputs": [
        {
          "name": "",
          "type": "string"
        }
      ],
      "payable": false,
      "stateMutability": "view",
      "type": "function"
    },
    {
      "constant": true,
      "inputs": [],
      "name": "owner",
      "outputs": [
        {
          "name": "",
          "type": "address"
        }
      ],
      "payable": false,
      "stateMutability": "view",
      "type": "function"
    },
    {
      "constant": true,
      "inputs": [],
      "name": "teamADidWin",
      "outputs": [
        {
          "name": "",
          "type": "bool"
        }
      ],
      "payable": false,
      "stateMutability": "view",
      "type": "function"
    },
    {
      "constant": true,
      "inputs": [],
      "name": "matchId",
      "outputs": [
        {
          "name": "",
          "type": "string"
        }
      ],
      "payable": false,
      "stateMutability": "view",
      "type": "function"
    },
    {
      "constant": true,
      "inputs": [],
      "name": "totalBetA",
      "outputs": [
        {
          "name": "",
          "type": "uint256"
        }
      ],
      "payable": false,
      "stateMutability": "view",
      "type": "function"
    },
    {
      "constant": true,
      "inputs": [
        {
          "name": "isBetA",
          "type": "bool"
        }
      ],
      "name": "getBetAmount",
      "outputs": [
        {
          "name": "betAmount",
          "type": "uint256"
        }
      ],
      "payable": false,
      "stateMutability": "view",
      "type": "function"
    },
    {
      "constant": true,
      "inputs": [],
      "name": "fulfilled",
      "outputs": [
        {
          "name": "",
          "type": "bool"
        }
      ],
      "payable": false,
      "stateMutability": "view",
      "type": "function"
    },
    {
      "constant": false,
      "inputs": [
        {
          "name": "_newOwner",
          "type": "address"
        }
      ],
      "name": "transferOwnership",
      "outputs": [],
      "payable": false,
      "stateMutability": "nonpayable",
      "type": "function"
    },
    {
      "inputs": [
        {
          "name": "_link",
          "type": "address"
        },
        {
          "name": "_oracle",
          "type": "address"
        },
        {
          "name": "_jobId",
          "type": "bytes32"
        },
        {
          "name": "_oraclePaymentAmount",
          "type": "uint256"
        },
        {
          "name": "_matchId",
          "type": "string"
        },
        {
          "name": "_teamA",
          "type": "string"
        },
        {
          "name": "_teamB",
          "type": "string"
        }
      ],
      "payable": false,
      "stateMutability": "nonpayable",
      "type": "constructor"
    },
    {
      "anonymous": false,
      "inputs": [
        {
          "indexed": true,
          "name": "previousOwner",
          "type": "address"
        }
      ],
      "name": "OwnershipRenounced",
      "type": "event"
    },
    {
      "anonymous": false,
      "inputs": [
        {
          "indexed": true,
          "name": "previousOwner",
          "type": "address"
        },
        {
          "indexed": true,
          "name": "newOwner",
          "type": "address"
        }
      ],
      "name": "OwnershipTransferred",
      "type": "event"
    },
    {
      "anonymous": false,
      "inputs": [
        {
          "indexed": true,
          "name": "id",
          "type": "bytes32"
        }
      ],
      "name": "ChainlinkRequested",
      "type": "event"
    },
    {
      "anonymous": false,
      "inputs": [
        {
          "indexed": true,
          "name": "id",
          "type": "bytes32"
        }
      ],
      "name": "ChainlinkFulfilled",
      "type": "event"
    },
    {
      "anonymous": false,
      "inputs": [
        {
          "indexed": true,
          "name": "id",
          "type": "bytes32"
        }
      ],
      "name": "ChainlinkCancelled",
      "type": "event"
    },
    {
      "constant": false,
      "inputs": [],
      "name": "checkResult",
      "outputs": [
        {
          "name": "requestId",
          "type": "bytes32"
        }
      ],
      "payable": false,
      "stateMutability": "nonpayable",
      "type": "function"
    },
    {
      "constant": false,
      "inputs": [
        {
          "name": "_requestId",
          "type": "bytes32"
        },
        {
          "name": "_data",
          "type": "bytes32"
        }
      ],
      "name": "fulfill",
      "outputs": [],
      "payable": false,
      "stateMutability": "nonpayable",
      "type": "function"
    }
  ],
  "bytecode": "0x608060405260016004553480156200001657600080fd5b506040516200221b3803806200221b833981018060405281019080805190602001909291908051906020019092919080519060200190929190805190602001909291908051820192919060200180518201929190602001805182019291905050508686868633600660006101000a81548173ffffffffffffffffffffffffffffffffffffffff021916908373ffffffffffffffffffffffffffffffffffffffff160217905550620000d6846200015e640100000000026401000000009004565b620000f083620001a2640100000000026401000000009004565b81600a8160001916905550806009819055505050505082600e90805190602001906200011e929190620001e6565b5081600f908051906020019062000137929190620001e6565b50806010908051906020019062000150929190620001e6565b505050505050505062000295565b80600260006101000a81548173ffffffffffffffffffffffffffffffffffffffff021916908373ffffffffffffffffffffffffffffffffffffffff16021790555050565b80600360006101000a81548173ffffffffffffffffffffffffffffffffffffffff021916908373ffffffffffffffffffffffffffffffffffffffff16021790555050565b828054600181600116156101000203166002900490600052602060002090601f016020900481019282601f106200022957805160ff19168380011785556200025a565b828001600101855582156200025a579182015b82811115620002595782518255916020019190600101906200023c565b5b5090506200026991906200026d565b5090565b6200029291905b808211156200028e57600081600090555060010162000274565b5090565b90565b611f7680620002a56000396000f3006080604052600436106100db576000357c0100000000000000000000000000000000000000000000000000000000900463ffffffff168063042f2b65146100e0578063168f407a1461011f5780633ccfd60b1461014a578063523afb0d14610161578063715018a614610183578063826df9aa1461019a5780638aa7c3e81461022a5780638da5cb5b146102ba57806398ff29c11461031157806399892e4714610340578063a21d942f146103d0578063d729a21c14610403578063daea25f11461042e578063e2d46f9814610471578063f2fde38b146104a0575b600080fd5b3480156100ec57600080fd5b5061011d600480360381019080803560001916906020019092919080356000191690602001909291905050506104e3565b005b34801561012b57600080fd5b50610134610727565b6040518082815260200191505060405180910390f35b34801561015657600080fd5b5061015f61072d565b005b6101816004803603810190808035151590602001909291905050506109b4565b005b34801561018f57600080fd5b50610198610b28565b005b3480156101a657600080fd5b506101af610c2d565b6040518080602001828103825283818151815260200191508051906020019080838360005b838110156101ef5780820151818401526020810190506101d4565b50505050905090810190601f16801561021c5780820380516001836020036101000a031916815260200191505b509250505060405180910390f35b34801561023657600080fd5b5061023f610ccb565b6040518080602001828103825283818151815260200191508051906020019080838360005b8381101561027f578082015181840152602081019050610264565b50505050905090810190601f1680156102ac5780820380516001836020036101000a031916815260200191505b509250505060405180910390f35b3480156102c657600080fd5b506102cf610d69565b604051808273ffffffffffffffffffffffffffffffffffffffff1673ffffffffffffffffffffffffffffffffffffffff16815260200191505060405180910390f35b34801561031d57600080fd5b50610326610d8f565b604051808215151515815260200191505060405180910390f35b34801561034c57600080fd5b50610355610da2565b6040518080602001828103825283818151815260200191508051906020019080838360005b8381101561039557808201518184015260208101905061037a565b50505050905090810190601f1680156103c25780820380516001836020036101000a031916815260200191505b509250505060405180910390f35b3480156103dc57600080fd5b506103e5610e40565b60405180826000191660001916815260200191505060405180910390f35b34801561040f57600080fd5b506104186111a6565b6040518082815260200191505060405180910390f35b34801561043a57600080fd5b5061045b6004803603810190808035151590602001909291905050506111ac565b6040518082815260200191505060405180910390f35b34801561047d57600080fd5b50610486611243565b604051808215151515815260200191505060405180910390f35b3480156104ac57600080fd5b506104e1600480360381019080803573ffffffffffffffffffffffffffffffffffffffff169060200190929190505050611256565b005b8160056000826000191660001916815260200190815260200160002060009054906101000a900473ffffffffffffffffffffffffffffffffffffffff1673ffffffffffffffffffffffffffffffffffffffff163373ffffffffffffffffffffffffffffffffffffffff161415156105e8576040517f08c379a00000000000000000000000000000000000000000000000000000000081526004018080602001828103825260288152602001807f536f75726365206d75737420626520746865206f7261636c65206f662074686581526020017f207265717565737400000000000000000000000000000000000000000000000081525060400191505060405180910390fd5b60056000826000191660001916815260200190815260200160002060006101000a81549073ffffffffffffffffffffffffffffffffffffffff021916905580600019167f7cc135e0cebb02c3480ae5d74d377283180a2601f8f644edf7987b009316c63a60405160405180910390a27f7465616d5f410000000000000000000000000000000000000000000000000000826000191614156106be576001600d60006101000a81548160ff0219169083151502179055506001600d60016101000a81548160ff021916908315150217905550610722565b7f7465616d5f42000000000000000000000000000000000000000000000000000082600019161415610721576001600d60006101000a81548160ff0219169083151502179055506000600d60016101000a81548160ff0219169083151502179055505b5b505050565b600c5481565b600d60009054906101000a900460ff1615156107d7576040517f08c379a000000000000000000000000000000000000000000000000000000000815260040180806020018281038252603e8152602001807f596f752063616e2774207769746864726177206265666f726520746865206d6181526020017f74636820726573756c7420686173206265656e2064656c6976657265642e000081525060400191505060405180910390fd5b600d60019054906101000a900460ff16156108d1573373ffffffffffffffffffffffffffffffffffffffff166108fc600b54600760003373ffffffffffffffffffffffffffffffffffffffff1673ffffffffffffffffffffffffffffffffffffffff16815260200190815260200160002054600c54600b54010281151561085a57fe5b049081150290604051600060405180830381858888f19350505050158015610886573d6000803e3d6000fd5b506000600760003373ffffffffffffffffffffffffffffffffffffffff1673ffffffffffffffffffffffffffffffffffffffff168152602001908152602001600020819055506109b2565b3373ffffffffffffffffffffffffffffffffffffffff166108fc600c54600860003373ffffffffffffffffffffffffffffffffffffffff1673ffffffffffffffffffffffffffffffffffffffff16815260200190815260200160002054600c54600b54010281151561093f57fe5b049081150290604051600060405180830381858888f1935050505015801561096b573d6000803e3d6000fd5b506000600860003373ffffffffffffffffffffffffffffffffffffffff1673ffffffffffffffffffffffffffffffffffffffff168152602001908152602001600020819055505b565b600d60009054906101000a900460ff16151515610a5f576040517f08c379a00000000000000000000000000000000000000000000000000000000081526004018080602001828103825260388152602001807f596f752063616e27742062657420616674657220746865206d6174636820726581526020017f73756c7420686173206265656e2064656c6976657265642e000000000000000081525060400191505060405180910390fd5b8015610ac75734600760003373ffffffffffffffffffffffffffffffffffffffff1673ffffffffffffffffffffffffffffffffffffffff1681526020019081526020016000206000828254019250508190555034600b60008282540192505081905550610b25565b34600860003373ffffffffffffffffffffffffffffffffffffffff1673ffffffffffffffffffffffffffffffffffffffff1681526020019081526020016000206000828254019250508190555034600c600082825401925050819055505b50565b600660009054906101000a900473ffffffffffffffffffffffffffffffffffffffff1673ffffffffffffffffffffffffffffffffffffffff163373ffffffffffffffffffffffffffffffffffffffff16141515610b8457600080fd5b600660009054906101000a900473ffffffffffffffffffffffffffffffffffffffff1673ffffffffffffffffffffffffffffffffffffffff167ff8df31144d9c2f0f6b59d69b8b98abd5459d07f2742c4df920b25aae33c6482060405160405180910390a26000600660006101000a81548173ffffffffffffffffffffffffffffffffffffffff021916908373ffffffffffffffffffffffffffffffffffffffff160217905550565b600f8054600181600116156101000203166002900480601f016020809104026020016040519081016040528092919081815260200182805460018160011615610100020316600290048015610cc35780601f10610c9857610100808354040283529160200191610cc3565b820191906000526020600020905b815481529060010190602001808311610ca657829003601f168201915b505050505081565b60108054600181600116156101000203166002900480601f016020809104026020016040519081016040528092919081815260200182805460018160011615610100020316600290048015610d615780601f10610d3657610100808354040283529160200191610d61565b820191906000526020600020905b815481529060010190602001808311610d4457829003601f168201915b505050505081565b600660009054906101000a900473ffffffffffffffffffffffffffffffffffffffff1681565b600d60019054906101000a900460ff1681565b600e8054600181600116156101000203166002900480601f016020809104026020016040519081016040528092919081815260200182805460018160011615610100020316600290048015610e385780601f10610e0d57610100808354040283529160200191610e38565b820191906000526020600020905b815481529060010190602001808311610e1b57829003601f168201915b505050505081565b6000610e4a611ea8565b600660009054906101000a900473ffffffffffffffffffffffffffffffffffffffff1673ffffffffffffffffffffffffffffffffffffffff163373ffffffffffffffffffffffffffffffffffffffff16141515610ea657600080fd5b600d60009054906101000a900460ff16151515610f51576040517f08c379a000000000000000000000000000000000000000000000000000000000815260040180806020018281038252602c8152602001807f546865206d6174636820726573756c742068617320616c72656164792062656581526020017f6e2064656c6976657265642e000000000000000000000000000000000000000081525060400191505060405180910390fd5b610f81600a543063042f2b657c0100000000000000000000000000000000000000000000000000000000026112be565b90506110676040805190810160405280600281526020017f6964000000000000000000000000000000000000000000000000000000000000815250600e8054600181600116156101000203166002900480601f0160208091040260200160405190810160405280929190818152602001828054600181600116156101000203166002900480156110525780601f1061102757610100808354040283529160200191611052565b820191906000526020600020905b81548152906001019060200180831161103557829003601f168201915b5050505050836112ef9092919063ffffffff16565b6110e66040805190810160405280600481526020017f74797065000000000000000000000000000000000000000000000000000000008152506040805190810160405280600581526020017f6d61746368000000000000000000000000000000000000000000000000000000815250836112ef9092919063ffffffff16565b61118c6040805190810160405280600881526020017f636f707950617468000000000000000000000000000000000000000000000000815250606060405190810160405280603681526020017f6461746173706f72747367726f75702e636f6d7065746974696f6e2e7365617381526020017f6f6e2e726f756e64732e6d617463682e77696e6e657200000000000000000000815250836112ef9092919063ffffffff16565b6111a0611197611322565b8260095461134c565b91505090565b600b5481565b600081156111fb57600760003373ffffffffffffffffffffffffffffffffffffffff1673ffffffffffffffffffffffffffffffffffffffff16815260200190815260200160002054905061123e565b600860003373ffffffffffffffffffffffffffffffffffffffff1673ffffffffffffffffffffffffffffffffffffffff1681526020019081526020016000205490505b919050565b600d60009054906101000a900460ff1681565b600660009054906101000a900473ffffffffffffffffffffffffffffffffffffffff1673ffffffffffffffffffffffffffffffffffffffff163373ffffffffffffffffffffffffffffffffffffffff161415156112b257600080fd5b6112bb816116d8565b50565b6112c6611ea8565b6112ce611ea8565b6112e5858585846117d4909392919063ffffffff16565b9150509392505050565b61130682846080015161188e90919063ffffffff16565b61131d81846080015161188e90919063ffffffff16565b505050565b6000600360009054906101000a900473ffffffffffffffffffffffffffffffffffffffff16905090565b600030600454604051602001808373ffffffffffffffffffffffffffffffffffffffff1673ffffffffffffffffffffffffffffffffffffffff166c01000000000000000000000000028152601401828152602001925050506040516020818303038152906040526040518082805190602001908083835b6020831015156113e857805182526020820191506020810190506020830392506113c3565b6001836020036101000a038019825116818451168082178552505050505050905001915050604051809103902090506004548360600181815250508360056000836000191660001916815260200190815260200160002060006101000a81548173ffffffffffffffffffffffffffffffffffffffff021916908373ffffffffffffffffffffffffffffffffffffffff16021790555080600019167fb5e6e01e79f91267dc17b4e6314d5d4d03593d2ceee0fbb452b750bd70ea5af960405160405180910390a2600260009054906101000a900473ffffffffffffffffffffffffffffffffffffffff1673ffffffffffffffffffffffffffffffffffffffff16634000aea085846114f7876118b3565b6040518463ffffffff167c0100000000000000000000000000000000000000000000000000000000028152600401808473ffffffffffffffffffffffffffffffffffffffff1673ffffffffffffffffffffffffffffffffffffffff16815260200183815260200180602001828103825283818151815260200191508051906020019080838360005b8381101561159a57808201518184015260208101905061157f565b50505050905090810190601f1680156115c75780820380516001836020036101000a031916815260200191505b50945050505050602060405180830381600087803b1580156115e857600080fd5b505af11580156115fc573d6000803e3d6000fd5b505050506040513d602081101561161257600080fd5b810190808051906020019092919050505015156116bd576040517f08c379a00000000000000000000000000000000000000000000000000000000081526004018080602001828103825260238152602001807f756e61626c6520746f207472616e73666572416e6443616c6c20746f206f726181526020017f636c65000000000000000000000000000000000000000000000000000000000081525060400191505060405180910390fd5b60016004600082825401925050819055508090509392505050565b600073ffffffffffffffffffffffffffffffffffffffff168173ffffffffffffffffffffffffffffffffffffffff161415151561171457600080fd5b8073ffffffffffffffffffffffffffffffffffffffff16600660009054906101000a900473ffffffffffffffffffffffffffffffffffffffff1673ffffffffffffffffffffffffffffffffffffffff167f8be0079c531659141344cd1fd0a4f28419497f9722a3daafe3b4186f6b6457e060405160405180910390a380600660006101000a81548173ffffffffffffffffffffffffffffffffffffffff021916908373ffffffffffffffffffffffffffffffffffffffff16021790555050565b6117dc611ea8565b6117ec8560800151610100611ade565b50838560000190600019169081600019168152505082856020019073ffffffffffffffffffffffffffffffffffffffff16908173ffffffffffffffffffffffffffffffffffffffff16815250508185604001907bffffffffffffffffffffffffffffffffffffffffffffffffffffffff191690817bffffffffffffffffffffffffffffffffffffffffffffffffffffffff191681525050849050949350505050565b61189b8260038351611b38565b6118ae8183611c9690919063ffffffff16565b505050565b6060600360009054906101000a900473ffffffffffffffffffffffffffffffffffffffff1673ffffffffffffffffffffffffffffffffffffffff16634042994690507c01000000000000000000000000000000000000000000000000000000000260008084600001518560200151866040015187606001516001896080015160000151604051602401808973ffffffffffffffffffffffffffffffffffffffff1673ffffffffffffffffffffffffffffffffffffffff16815260200188815260200187600019166000191681526020018673ffffffffffffffffffffffffffffffffffffffff1673ffffffffffffffffffffffffffffffffffffffff168152602001857bffffffffffffffffffffffffffffffffffffffffffffffffffffffff19167bffffffffffffffffffffffffffffffffffffffffffffffffffffffff1916815260200184815260200183815260200180602001828103825283818151815260200191508051906020019080838360005b83811015611a41578082015181840152602081019050611a26565b50505050905090810190601f168015611a6e5780820380516001836020036101000a031916815260200191505b509950505050505050505050604051602081830303815290604052907bffffffffffffffffffffffffffffffffffffffffffffffffffffffff19166020820180517bffffffffffffffffffffffffffffffffffffffffffffffffffffffff83818316178352505050509050919050565b611ae6611f16565b6000602083811515611af457fe5b06141515611b1157602082811515611b0857fe5b06602003820191505b81836020018181525050604051808452600081528281016020016040525082905092915050565b601781111515611b6a57611b648160058460ff169060020a0260ff161784611cb890919063ffffffff16565b50611c91565b60ff81111515611bb157611b94601860058460ff169060020a021784611cb890919063ffffffff16565b50611bab81600185611cd89092919063ffffffff16565b50611c90565b61ffff81111515611bf957611bdc601960058460ff169060020a021784611cb890919063ffffffff16565b50611bf381600285611cd89092919063ffffffff16565b50611c8f565b63ffffffff81111515611c4357611c26601a60058460ff169060020a021784611cb890919063ffffffff16565b50611c3d81600485611cd89092919063ffffffff16565b50611c8e565b67ffffffffffffffff81111515611c8d57611c74601b60058460ff169060020a021784611cb890919063ffffffff16565b50611c8b81600885611cd89092919063ffffffff16565b505b5b5b5b5b505050565b611c9e611f16565b611cb083846000015151848551611cfa565b905092915050565b611cc0611f16565b611cd08384600001515184611db7565b905092915050565b611ce0611f16565b611cf1848560000151518585611e07565b90509392505050565b611d02611f16565b600080600085518511151515611d1757600080fd5b87602001518588011115611d4257611d41886002611d3b8b602001518b8a01611e68565b02611e84565b5b875180518860208301019450808988011115611d5e5788870182525b60208801935050505b602085101515611d8c5781518352602083019250602082019150602085039450611d67565b6001856020036101000a03905080198251168184511681811785525050879350505050949350505050565b611dbf611f16565b836020015183101515611dde57611ddd846002866020015102611e84565b5b8351805160208583010184815381861415611dfa576001820183525b5050508390509392505050565b611e0f611f16565b600085602001518584011115611e2f57611e2e86600287860102611e84565b5b6001836101000a0390508551838682010185831982511617815281518588011115611e5a5784870182525b505085915050949350505050565b600081831115611e7a57829050611e7e565b8190505b92915050565b606082600001519050611e978383611ade565b50611ea28382611c96565b50505050565b60c06040519081016040528060008019168152602001600073ffffffffffffffffffffffffffffffffffffffff16815260200160007bffffffffffffffffffffffffffffffffffffffffffffffffffffffff1916815260200160008152602001611f10611f30565b81525090565b604080519081016040528060608152602001600081525090565b6040805190810160405280606081526020016000815250905600a165627a7a72305820922c5b4df03064bcc7ad0e0579bdd295cd5dbc2f2de391ddd6feb539db08e1cf0029",
  "source": "pragma solidity 0.4.24;\n\nimport \"./BettingPool.sol\";\n\ncontract SoccerBettingPool is BettingPool\n{\n    string public matchId;\n    string public teamA;\n    string public teamB;\n\n    constructor(\n        address _link,\n        address _oracle,\n        bytes32 _jobId,\n        uint256 _oraclePaymentAmount,\n        string _matchId,\n        string _teamA,\n        string _teamB\n        )\n    BettingPool(\n        _link,\n        _oracle,\n        _jobId,\n        _oraclePaymentAmount\n        )\n    public\n    {\n        matchId = _matchId;\n        teamA = _teamA;\n        teamB = _teamB;\n    }\n\n    function checkResult() external onlyOwner returns (bytes32 requestId)\n    {\n        require(!fulfilled, \"The match result has already been delivered.\");\n        Chainlink.Request memory req = buildChainlinkRequest(jobId, this, this.fulfill.selector);\n        req.add(\"id\", matchId);\n        req.add(\"type\", \"match\");\n        req.add(\"copyPath\", \"datasportsgroup.competition.season.rounds.match.winner\");\n        requestId = sendChainlinkRequestTo(chainlinkOracleAddress(), req, oraclePaymentAmount);\n    }\n\n    function fulfill(bytes32 _requestId, bytes32 _data)\n    public\n    recordChainlinkFulfillment(_requestId)\n    {\n        if (_data == \"team_A\")\n        {\n            fulfilled = true;\n            teamADidWin = true;\n        }\n        else if (_data == \"team_B\")\n        {\n            fulfilled = true;\n            teamADidWin = false;\n        }\n    }\n}",
  "sourcePath": "/home/burak/Desktop/honeycomb-chainlink-workshop/contracts/SoccerBettingPool.sol",
  "compiler": {
    "name": "solc",
    "version": "0.4.24+commit.e67f0147.Emscripten.clang"
  },
  "schemaVersion": "3.0.16",
  "updatedAt": "2019-10-29T19:15:33.406Z",
  "devdoc": {
    "methods": {
      "renounceOwnership()": {
        "details": "Allows the current owner to relinquish control of the contract."
      },
      "transferOwnership(address)": {
        "details": "Allows the current owner to transfer control of the contract to a newOwner.",
        "params": {
          "_newOwner": "The address to transfer ownership to."
        }
      }
    }
  },
  "userdoc": {
    "methods": {
      "renounceOwnership()": {
        "notice": "Renouncing to ownership will leave the contract without an owner. It will not be possible to call the functions with the `onlyOwner` modifier anymore."
      }
    }
  }
}